{
  "_format": "hh-sol-artifact-1",
  "contractName": "BookLending",
  "sourceName": "contracts/BookLending.sol",
  "abi": [
    {
      "inputs": [],
      "stateMutability": "nonpayable",
      "type": "constructor"
    },
    {
      "inputs": [
        {
          "internalType": "string",
          "name": "title",
          "type": "string"
        }
      ],
      "name": "addBook",
      "outputs": [],
      "stateMutability": "nonpayable",
      "type": "function"
    },
    {
      "inputs": [],
      "name": "admin",
      "outputs": [
        {
          "internalType": "address",
          "name": "",
          "type": "address"
        }
      ],
      "stateMutability": "view",
      "type": "function"
    },
    {
      "inputs": [
        {
          "internalType": "uint256",
          "name": "",
          "type": "uint256"
        }
      ],
      "name": "books",
      "outputs": [
        {
          "internalType": "string",
          "name": "title",
          "type": "string"
        },
        {
          "internalType": "bool",
          "name": "isBorrowed",
          "type": "bool"
        }
      ],
      "stateMutability": "view",
      "type": "function"
    },
    {
      "inputs": [
        {
          "internalType": "uint256",
          "name": "bookId",
          "type": "uint256"
        }
      ],
      "name": "borrowBook",
      "outputs": [],
      "stateMutability": "nonpayable",
      "type": "function"
    },
    {
      "inputs": [],
      "name": "getBooks",
      "outputs": [
        {
          "internalType": "uint256[]",
          "name": "",
          "type": "uint256[]"
        },
        {
          "internalType": "string[]",
          "name": "",
          "type": "string[]"
        },
        {
          "internalType": "bool[]",
          "name": "",
          "type": "bool[]"
        }
      ],
      "stateMutability": "view",
      "type": "function"
    },
    {
      "inputs": [
        {
          "internalType": "uint256",
          "name": "bookId",
          "type": "uint256"
        }
      ],
      "name": "getHistory",
      "outputs": [
        {
          "components": [
            {
              "internalType": "address",
              "name": "borrower",
              "type": "address"
            },
            {
              "internalType": "uint256",
              "name": "borrowedAt",
              "type": "uint256"
            },
            {
              "internalType": "uint256",
              "name": "returnedAt",
              "type": "uint256"
            }
          ],
          "internalType": "struct BookLending.Transaction[]",
          "name": "",
          "type": "tuple[]"
        }
      ],
      "stateMutability": "view",
      "type": "function"
    },
    {
      "inputs": [],
      "name": "nextBookId",
      "outputs": [
        {
          "internalType": "uint256",
          "name": "",
          "type": "uint256"
        }
      ],
      "stateMutability": "view",
      "type": "function"
    },
    {
      "inputs": [
        {
          "internalType": "uint256",
          "name": "bookId",
          "type": "uint256"
        }
      ],
      "name": "returnBook",
      "outputs": [],
      "stateMutability": "nonpayable",
      "type": "function"
    }
  ],
  "bytecode": "0x608060405234801561001057600080fd5b50336000806101000a81548173ffffffffffffffffffffffffffffffffffffffff021916908373ffffffffffffffffffffffffffffffffffffffff1602179055506113e1806100606000396000f3fe608060405234801561001057600080fd5b50600436106100885760003560e01c80639f3497891161005b5780639f34978914610114578063c8691b2a14610134578063ca5140c914610164578063f851a4401461018057610088565b80633bc5f48a1461008d57806368744046146100a95780637cf52d96146100da5780637e490a9e146100f8575b600080fd5b6100a760048036038101906100a29190610af4565b61019e565b005b6100c360048036038101906100be9190610b35565b6102a5565b6040516100d1929190610fa0565b60405180910390f35b6100e261035e565b6040516100ef9190611030565b60405180910390f35b610112600480360381019061010d9190610b35565b610364565b005b61011c6104aa565b60405161012b93929190610f54565b60405180910390f35b61014e60048036038101906101499190610b35565b6107dd565b60405161015b9190610f32565b60405180910390f35b61017e60048036038101906101799190610b35565b6108bc565b005b6101886109b0565b6040516101959190610f17565b60405180910390f35b60008054906101000a900473ffffffffffffffffffffffffffffffffffffffff1673ffffffffffffffffffffffffffffffffffffffff163373ffffffffffffffffffffffffffffffffffffffff161461022c576040517f08c379a000000000000000000000000000000000000000000000000000000000815260040161022390611010565b60405180910390fd5b8060016000600254815260200190815260200160002060000190805190602001906102589291906109d4565b50600060016000600254815260200190815260200160002060010160006101000a81548160ff0219169083151502179055506002600081548092919061029d906112ad565b919050555050565b60016020528060005260406000206000915090508060000180546102c89061127b565b80601f01602080910402602001604051908101604052809291908181526020018280546102f49061127b565b80156103415780601f1061031657610100808354040283529160200191610341565b820191906000526020600020905b81548152906001019060200180831161032457829003601f168201915b5050505050908060010160009054906101000a900460ff16905082565b60025481565b60006001600083815260200190815260200160002090508060010160009054906101000a900460ff16156103cd576040517f08c379a00000000000000000000000000000000000000000000000000000000081526004016103c490610ff0565b60405180910390fd5b60018160010160006101000a81548160ff0219169083151502179055508060020160405180606001604052803373ffffffffffffffffffffffffffffffffffffffff1681526020014281526020016000815250908060018154018082558091505060019003906000526020600020906003020160009091909190915060008201518160000160006101000a81548173ffffffffffffffffffffffffffffffffffffffff021916908373ffffffffffffffffffffffffffffffffffffffff160217905550602082015181600101556040820151816002015550505050565b6060806060600060025467ffffffffffffffff8111156104f3577f4e487b7100000000000000000000000000000000000000000000000000000000600052604160045260246000fd5b6040519080825280602002602001820160405280156105215781602001602082028036833780820191505090505b509050600060025467ffffffffffffffff811115610568577f4e487b7100000000000000000000000000000000000000000000000000000000600052604160045260246000fd5b60405190808252806020026020018201604052801561059b57816020015b60608152602001906001900390816105865790505b509050600060025467ffffffffffffffff8111156105e2577f4e487b7100000000000000000000000000000000000000000000000000000000600052604160045260246000fd5b6040519080825280602002602001820160405280156106105781602001602082028036833780820191505090505b50905060005b6002548110156107cb578084828151811061065a577f4e487b7100000000000000000000000000000000000000000000000000000000600052603260045260246000fd5b6020026020010181815250506001600082815260200190815260200160002060000180546106879061127b565b80601f01602080910402602001604051908101604052809291908181526020018280546106b39061127b565b80156107005780601f106106d557610100808354040283529160200191610700565b820191906000526020600020905b8154815290600101906020018083116106e357829003601f168201915b505050505083828151811061073e577f4e487b7100000000000000000000000000000000000000000000000000000000600052603260045260246000fd5b60200260200101819052506001600082815260200190815260200160002060010160009054906101000a900460ff168282815181106107a6577f4e487b7100000000000000000000000000000000000000000000000000000000600052603260045260246000fd5b60200260200101901515908115158152505080806107c3906112ad565b915050610616565b50828282955095509550505050909192565b606060016000838152602001908152602001600020600201805480602002602001604051908101604052809291908181526020016000905b828210156108b157838290600052602060002090600302016040518060600160405290816000820160009054906101000a900473ffffffffffffffffffffffffffffffffffffffff1673ffffffffffffffffffffffffffffffffffffffff1673ffffffffffffffffffffffffffffffffffffffff1681526020016001820154815260200160028201548152505081526020019060010190610815565b505050509050919050565b60006001600083815260200190815260200160002090508060010160009054906101000a900460ff16610924576040517f08c379a000000000000000000000000000000000000000000000000000000000815260040161091b90610fd0565b60405180910390fd5b60008160010160006101000a81548160ff02191690831515021790555060006001826002018054905061095791906111bd565b905042826002018281548110610996577f4e487b7100000000000000000000000000000000000000000000000000000000600052603260045260246000fd5b906000526020600020906003020160020181905550505050565b60008054906101000a900473ffffffffffffffffffffffffffffffffffffffff1681565b8280546109e09061127b565b90600052602060002090601f016020900481019282610a025760008555610a49565b82601f10610a1b57805160ff1916838001178555610a49565b82800160010185558215610a49579182015b82811115610a48578251825591602001919060010190610a2d565b5b509050610a569190610a5a565b5090565b5b80821115610a73576000816000905550600101610a5b565b5090565b6000610a8a610a858461107c565b61104b565b905082815260208101848484011115610aa257600080fd5b610aad848285611239565b509392505050565b600082601f830112610ac657600080fd5b8135610ad6848260208601610a77565b91505092915050565b600081359050610aee81611394565b92915050565b600060208284031215610b0657600080fd5b600082013567ffffffffffffffff811115610b2057600080fd5b610b2c84828501610ab5565b91505092915050565b600060208284031215610b4757600080fd5b6000610b5584828501610adf565b91505092915050565b6000610b6a8383610d67565b60208301905092915050565b6000610b828383610d85565b905092915050565b6000610b968383610eb7565b60608301905092915050565b6000610bae8383610ef9565b60208301905092915050565b610bc3816111f1565b82525050565b610bd2816111f1565b82525050565b6000610be3826110ec565b610bed8185611157565b9350610bf8836110ac565b8060005b83811015610c29578151610c108882610b5e565b9750610c1b83611123565b925050600181019050610bfc565b5085935050505092915050565b6000610c41826110f7565b610c4b8185611168565b935083602082028501610c5d856110bc565b8060005b85811015610c995784840389528151610c7a8582610b76565b9450610c8583611130565b925060208a01995050600181019050610c61565b50829750879550505050505092915050565b6000610cb682611102565b610cc08185611179565b9350610ccb836110cc565b8060005b83811015610cfc578151610ce38882610b8a565b9750610cee8361113d565b925050600181019050610ccf565b5085935050505092915050565b6000610d148261110d565b610d1e818561118a565b9350610d29836110dc565b8060005b83811015610d5a578151610d418882610ba2565b9750610d4c8361114a565b925050600181019050610d2d565b5085935050505092915050565b610d7081611203565b82525050565b610d7f81611203565b82525050565b6000610d9082611118565b610d9a818561119b565b9350610daa818560208601611248565b610db381611383565b840191505092915050565b6000610dc982611118565b610dd381856111ac565b9350610de3818560208601611248565b610dec81611383565b840191505092915050565b6000610e046011836111ac565b91507f426f6f6b206e6f7420626f72726f7765640000000000000000000000000000006000830152602082019050919050565b6000610e446010836111ac565b91507f416c726561647920626f72726f776564000000000000000000000000000000006000830152602082019050919050565b6000610e846009836111ac565b91507f4e6f742061646d696e00000000000000000000000000000000000000000000006000830152602082019050919050565b606082016000820151610ecd6000850182610bba565b506020820151610ee06020850182610ef9565b506040820151610ef36040850182610ef9565b50505050565b610f028161122f565b82525050565b610f118161122f565b82525050565b6000602082019050610f2c6000830184610bc9565b92915050565b60006020820190508181036000830152610f4c8184610cab565b905092915050565b60006060820190508181036000830152610f6e8186610d09565b90508181036020830152610f828185610c36565b90508181036040830152610f968184610bd8565b9050949350505050565b60006040820190508181036000830152610fba8185610dbe565b9050610fc96020830184610d76565b9392505050565b60006020820190508181036000830152610fe981610df7565b9050919050565b6000602082019050818103600083015261100981610e37565b9050919050565b6000602082019050818103600083015261102981610e77565b9050919050565b60006020820190506110456000830184610f08565b92915050565b6000604051905081810181811067ffffffffffffffff8211171561107257611071611354565b5b8060405250919050565b600067ffffffffffffffff82111561109757611096611354565b5b601f19601f8301169050602081019050919050565b6000819050602082019050919050565b6000819050602082019050919050565b6000819050602082019050919050565b6000819050602082019050919050565b600081519050919050565b600081519050919050565b600081519050919050565b600081519050919050565b600081519050919050565b6000602082019050919050565b6000602082019050919050565b6000602082019050919050565b6000602082019050919050565b600082825260208201905092915050565b600082825260208201905092915050565b600082825260208201905092915050565b600082825260208201905092915050565b600082825260208201905092915050565b600082825260208201905092915050565b60006111c88261122f565b91506111d38361122f565b9250828210156111e6576111e56112f6565b5b828203905092915050565b60006111fc8261120f565b9050919050565b60008115159050919050565b600073ffffffffffffffffffffffffffffffffffffffff82169050919050565b6000819050919050565b82818337600083830152505050565b60005b8381101561126657808201518184015260208101905061124b565b83811115611275576000848401525b50505050565b6000600282049050600182168061129357607f821691505b602082108114156112a7576112a6611325565b5b50919050565b60006112b88261122f565b91507fffffffffffffffffffffffffffffffffffffffffffffffffffffffffffffffff8214156112eb576112ea6112f6565b5b600182019050919050565b7f4e487b7100000000000000000000000000000000000000000000000000000000600052601160045260246000fd5b7f4e487b7100000000000000000000000000000000000000000000000000000000600052602260045260246000fd5b7f4e487b7100000000000000000000000000000000000000000000000000000000600052604160045260246000fd5b6000601f19601f8301169050919050565b61139d8161122f565b81146113a857600080fd5b5056fea2646970667358221220f2ec13b649e04cabf4b884c8b9b8cbc08705858f6fcd3f3de8f175eefd8e475f64736f6c63430008000033",
  "linkReferences": {},
  "deployedLinkReferences": {}
}